{
  "_format": "hh-sol-artifact-1",
  "contractName": "EmployeeCertificates",
  "sourceName": "contracts/EmployeeCertificates.sol",
  "abi": [
    {
      "inputs": [],
      "stateMutability": "nonpayable",
      "type": "constructor"
    },
    {
      "inputs": [
        {
          "internalType": "address",
          "name": "sender",
          "type": "address"
        },
        {
          "internalType": "uint256",
          "name": "tokenId",
          "type": "uint256"
        },
        {
          "internalType": "address",
          "name": "owner",
          "type": "address"
        }
      ],
      "name": "ERC721IncorrectOwner",
      "type": "error"
    },
    {
      "inputs": [
        {
          "internalType": "address",
          "name": "operator",
          "type": "address"
        },
        {
          "internalType": "uint256",
          "name": "tokenId",
          "type": "uint256"
        }
      ],
      "name": "ERC721InsufficientApproval",
      "type": "error"
    },
    {
      "inputs": [
        {
          "internalType": "address",
          "name": "approver",
          "type": "address"
        }
      ],
      "name": "ERC721InvalidApprover",
      "type": "error"
    },
    {
      "inputs": [
        {
          "internalType": "address",
          "name": "operator",
          "type": "address"
        }
      ],
      "name": "ERC721InvalidOperator",
      "type": "error"
    },
    {
      "inputs": [
        {
          "internalType": "address",
          "name": "owner",
          "type": "address"
        }
      ],
      "name": "ERC721InvalidOwner",
      "type": "error"
    },
    {
      "inputs": [
        {
          "internalType": "address",
          "name": "receiver",
          "type": "address"
        }
      ],
      "name": "ERC721InvalidReceiver",
      "type": "error"
    },
    {
      "inputs": [
        {
          "internalType": "address",
          "name": "sender",
          "type": "address"
        }
      ],
      "name": "ERC721InvalidSender",
      "type": "error"
    },
    {
      "inputs": [
        {
          "internalType": "uint256",
          "name": "tokenId",
          "type": "uint256"
        }
      ],
      "name": "ERC721NonexistentToken",
      "type": "error"
    },
    {
      "anonymous": false,
      "inputs": [
        {
          "indexed": true,
          "internalType": "address",
          "name": "owner",
          "type": "address"
        },
        {
          "indexed": true,
          "internalType": "address",
          "name": "approved",
          "type": "address"
        },
        {
          "indexed": true,
          "internalType": "uint256",
          "name": "tokenId",
          "type": "uint256"
        }
      ],
      "name": "Approval",
      "type": "event"
    },
    {
      "anonymous": false,
      "inputs": [
        {
          "indexed": true,
          "internalType": "address",
          "name": "owner",
          "type": "address"
        },
        {
          "indexed": true,
          "internalType": "address",
          "name": "operator",
          "type": "address"
        },
        {
          "indexed": false,
          "internalType": "bool",
          "name": "approved",
          "type": "bool"
        }
      ],
      "name": "ApprovalForAll",
      "type": "event"
    },
    {
      "anonymous": false,
      "inputs": [
        {
          "indexed": false,
          "internalType": "uint256",
          "name": "_fromTokenId",
          "type": "uint256"
        },
        {
          "indexed": false,
          "internalType": "uint256",
          "name": "_toTokenId",
          "type": "uint256"
        }
      ],
      "name": "BatchMetadataUpdate",
      "type": "event"
    },
    {
      "anonymous": false,
      "inputs": [
        {
          "indexed": false,
          "internalType": "uint256",
          "name": "_tokenId",
          "type": "uint256"
        }
      ],
      "name": "MetadataUpdate",
      "type": "event"
    },
    {
      "anonymous": false,
      "inputs": [
        {
          "indexed": true,
          "internalType": "address",
          "name": "from",
          "type": "address"
        },
        {
          "indexed": true,
          "internalType": "address",
          "name": "to",
          "type": "address"
        },
        {
          "indexed": true,
          "internalType": "uint256",
          "name": "tokenId",
          "type": "uint256"
        }
      ],
      "name": "Transfer",
      "type": "event"
    },
    {
      "inputs": [
        {
          "internalType": "address",
          "name": "to",
          "type": "address"
        },
        {
          "internalType": "uint256",
          "name": "tokenId",
          "type": "uint256"
        }
      ],
      "name": "approve",
      "outputs": [],
      "stateMutability": "nonpayable",
      "type": "function"
    },
    {
      "inputs": [
        {
          "internalType": "address",
          "name": "owner",
          "type": "address"
        }
      ],
      "name": "balanceOf",
      "outputs": [
        {
          "internalType": "uint256",
          "name": "",
          "type": "uint256"
        }
      ],
      "stateMutability": "view",
      "type": "function"
    },
    {
      "inputs": [
        {
          "internalType": "uint256",
          "name": "tokenId",
          "type": "uint256"
        }
      ],
      "name": "getApproved",
      "outputs": [
        {
          "internalType": "address",
          "name": "",
          "type": "address"
        }
      ],
      "stateMutability": "view",
      "type": "function"
    },
    {
      "inputs": [
        {
          "internalType": "address",
          "name": "owner",
          "type": "address"
        },
        {
          "internalType": "address",
          "name": "operator",
          "type": "address"
        }
      ],
      "name": "isApprovedForAll",
      "outputs": [
        {
          "internalType": "bool",
          "name": "",
          "type": "bool"
        }
      ],
      "stateMutability": "view",
      "type": "function"
    },
    {
      "inputs": [
        {
          "internalType": "address",
          "name": "employee",
          "type": "address"
        },
        {
          "internalType": "string",
          "name": "tokenURI",
          "type": "string"
        }
      ],
      "name": "issueCertificate",
      "outputs": [],
      "stateMutability": "nonpayable",
      "type": "function"
    },
    {
      "inputs": [],
      "name": "name",
      "outputs": [
        {
          "internalType": "string",
          "name": "",
          "type": "string"
        }
      ],
      "stateMutability": "view",
      "type": "function"
    },
    {
      "inputs": [],
      "name": "nextTokenId",
      "outputs": [
        {
          "internalType": "uint256",
          "name": "",
          "type": "uint256"
        }
      ],
      "stateMutability": "view",
      "type": "function"
    },
    {
      "inputs": [],
      "name": "owner",
      "outputs": [
        {
          "internalType": "address",
          "name": "",
          "type": "address"
        }
      ],
      "stateMutability": "view",
      "type": "function"
    },
    {
      "inputs": [
        {
          "internalType": "uint256",
          "name": "tokenId",
          "type": "uint256"
        }
      ],
      "name": "ownerOf",
      "outputs": [
        {
          "internalType": "address",
          "name": "",
          "type": "address"
        }
      ],
      "stateMutability": "view",
      "type": "function"
    },
    {
      "inputs": [
        {
          "internalType": "address",
          "name": "from",
          "type": "address"
        },
        {
          "internalType": "address",
          "name": "to",
          "type": "address"
        },
        {
          "internalType": "uint256",
          "name": "tokenId",
          "type": "uint256"
        }
      ],
      "name": "safeTransferFrom",
      "outputs": [],
      "stateMutability": "nonpayable",
      "type": "function"
    },
    {
      "inputs": [
        {
          "internalType": "address",
          "name": "from",
          "type": "address"
        },
        {
          "internalType": "address",
          "name": "to",
          "type": "address"
        },
        {
          "internalType": "uint256",
          "name": "tokenId",
          "type": "uint256"
        },
        {
          "internalType": "bytes",
          "name": "data",
          "type": "bytes"
        }
      ],
      "name": "safeTransferFrom",
      "outputs": [],
      "stateMutability": "nonpayable",
      "type": "function"
    },
    {
      "inputs": [
        {
          "internalType": "address",
          "name": "operator",
          "type": "address"
        },
        {
          "internalType": "bool",
          "name": "approved",
          "type": "bool"
        }
      ],
      "name": "setApprovalForAll",
      "outputs": [],
      "stateMutability": "nonpayable",
      "type": "function"
    },
    {
      "inputs": [
        {
          "internalType": "bytes4",
          "name": "interfaceId",
          "type": "bytes4"
        }
      ],
      "name": "supportsInterface",
      "outputs": [
        {
          "internalType": "bool",
          "name": "",
          "type": "bool"
        }
      ],
      "stateMutability": "view",
      "type": "function"
    },
    {
      "inputs": [],
      "name": "symbol",
      "outputs": [
        {
          "internalType": "string",
          "name": "",
          "type": "string"
        }
      ],
      "stateMutability": "view",
      "type": "function"
    },
    {
      "inputs": [
        {
          "internalType": "uint256",
          "name": "tokenId",
          "type": "uint256"
        }
      ],
      "name": "tokenURI",
      "outputs": [
        {
          "internalType": "string",
          "name": "",
          "type": "string"
        }
      ],
      "stateMutability": "view",
      "type": "function"
    },
    {
      "inputs": [
        {
          "internalType": "address",
          "name": "from",
          "type": "address"
        },
        {
          "internalType": "address",
          "name": "to",
          "type": "address"
        },
        {
          "internalType": "uint256",
          "name": "tokenId",
          "type": "uint256"
        }
      ],
      "name": "transferFrom",
      "outputs": [],
      "stateMutability": "nonpayable",
      "type": "function"
    }
  ],
  "bytecode": "0x608060405234801561001057600080fd5b506040518060400160405280601481526020017f456d706c6f7965654365727469666963617465730000000000000000000000008152506040518060400160405280600481526020017f4345525400000000000000000000000000000000000000000000000000000000815250816000908161008c9190610335565b50806001908161009c9190610335565b50505033600860006101000a81548173ffffffffffffffffffffffffffffffffffffffff021916908373ffffffffffffffffffffffffffffffffffffffff160217905550610407565b600081519050919050565b7f4e487b7100000000000000000000000000000000000000000000000000000000600052604160045260246000fd5b7f4e487b7100000000000000000000000000000000000000000000000000000000600052602260045260246000fd5b6000600282049050600182168061016657607f821691505b6020821081036101795761017861011f565b5b50919050565b60008190508160005260206000209050919050565b60006020601f8301049050919050565b600082821b905092915050565b6000600883026101e17fffffffffffffffffffffffffffffffffffffffffffffffffffffffffffffffff826101a4565b6101eb86836101a4565b95508019841693508086168417925050509392505050565b6000819050919050565b6000819050919050565b600061023261022d61022884610203565b61020d565b610203565b9050919050565b6000819050919050565b61024c83610217565b61026061025882610239565b8484546101b1565b825550505050565b600090565b610275610268565b610280818484610243565b505050565b5b818110156102a45761029960008261026d565b600181019050610286565b5050565b601f8211156102e9576102ba8161017f565b6102c384610194565b810160208510156102d2578190505b6102e66102de85610194565b830182610285565b50505b505050565b600082821c905092915050565b600061030c600019846008026102ee565b1980831691505092915050565b600061032583836102fb565b9150826002028217905092915050565b61033e826100e5565b67ffffffffffffffff811115610357576103566100f0565b5b610361825461014e565b61036c8282856102a8565b600060209050601f83116001811461039f576000841561038d578287015190505b6103978582610319565b8655506103ff565b601f1984166103ad8661017f565b60005b828110156103d5578489015182556001820191506020850194506020810190506103b0565b868310156103f257848901516103ee601f8916826102fb565b8355505b6001600288020188555050505b505050505050565b612546806104166000396000f3fe608060405234801561001057600080fd5b50600436106101005760003560e01c806375794a3c11610097578063b88d4fde11610066578063b88d4fde146102ad578063bb721aab146102c9578063c87b56dd146102e5578063e985e9c51461031557610100565b806375794a3c146102375780638da5cb5b1461025557806395d89b4114610273578063a22cb4651461029157610100565b806323b872dd116100d357806323b872dd1461019f57806342842e0e146101bb5780636352211e146101d757806370a082311461020757610100565b806301ffc9a71461010557806306fdde0314610135578063081812fc14610153578063095ea7b314610183575b600080fd5b61011f600480360381019061011a919061190c565b610345565b60405161012c9190611954565b60405180910390f35b61013d6103a6565b60405161014a91906119ff565b60405180910390f35b61016d60048036038101906101689190611a57565b610438565b60405161017a9190611ac5565b60405180910390f35b61019d60048036038101906101989190611b0c565b610454565b005b6101b960048036038101906101b49190611b4c565b61046a565b005b6101d560048036038101906101d09190611b4c565b61056c565b005b6101f160048036038101906101ec9190611a57565b61058c565b6040516101fe9190611ac5565b60405180910390f35b610221600480360381019061021c9190611b9f565b61059e565b60405161022e9190611bdb565b60405180910390f35b61023f610658565b60405161024c9190611bdb565b60405180910390f35b61025d61065e565b60405161026a9190611ac5565b60405180910390f35b61027b610684565b60405161028891906119ff565b60405180910390f35b6102ab60048036038101906102a69190611c22565b610716565b005b6102c760048036038101906102c29190611d97565b61072c565b005b6102e360048036038101906102de9190611ebb565b610749565b005b6102ff60048036038101906102fa9190611a57565b610811565b60405161030c91906119ff565b60405180910390f35b61032f600480360381019061032a9190611f17565b610924565b60405161033c9190611954565b60405180910390f35b6000634906490660e01b7bffffffffffffffffffffffffffffffffffffffffffffffffffffffff1916827bffffffffffffffffffffffffffffffffffffffffffffffffffffffff1916148061039f575061039e826109b8565b5b9050919050565b6060600080546103b590611f86565b80601f01602080910402602001604051908101604052809291908181526020018280546103e190611f86565b801561042e5780601f106104035761010080835404028352916020019161042e565b820191906000526020600020905b81548152906001019060200180831161041157829003601f168201915b5050505050905090565b600061044382610a9a565b5061044d82610b22565b9050919050565b6104668282610461610b5f565b610b67565b5050565b600073ffffffffffffffffffffffffffffffffffffffff168273ffffffffffffffffffffffffffffffffffffffff16036104dc5760006040517f64a0ae920000000000000000000000000000000000000000000000000000000081526004016104d39190611ac5565b60405180910390fd5b60006104f083836104eb610b5f565b610b79565b90508373ffffffffffffffffffffffffffffffffffffffff168173ffffffffffffffffffffffffffffffffffffffff1614610566578382826040517f64283d7b00000000000000000000000000000000000000000000000000000000815260040161055d93929190611fb7565b60405180910390fd5b50505050565b6105878383836040518060200160405280600081525061072c565b505050565b600061059782610a9a565b9050919050565b60008073ffffffffffffffffffffffffffffffffffffffff168273ffffffffffffffffffffffffffffffffffffffff16036106115760006040517f89c62b640000000000000000000000000000000000000000000000000000000081526004016106089190611ac5565b60405180910390fd5b600360008373ffffffffffffffffffffffffffffffffffffffff1673ffffffffffffffffffffffffffffffffffffffff168152602001908152602001600020549050919050565b60075481565b600860009054906101000a900473ffffffffffffffffffffffffffffffffffffffff1681565b60606001805461069390611f86565b80601f01602080910402602001604051908101604052809291908181526020018280546106bf90611f86565b801561070c5780601f106106e15761010080835404028352916020019161070c565b820191906000526020600020905b8154815290600101906020018083116106ef57829003601f168201915b5050505050905090565b610728610721610b5f565b8383610d93565b5050565b61073784848461046a565b61074384848484610f02565b50505050565b600860009054906101000a900473ffffffffffffffffffffffffffffffffffffffff1673ffffffffffffffffffffffffffffffffffffffff163373ffffffffffffffffffffffffffffffffffffffff16146107d9576040517f08c379a00000000000000000000000000000000000000000000000000000000081526004016107d090612060565b60405180910390fd5b60006007549050600760008154809291906107f3906120af565b919050555061080283826110b9565b61080c81836111b2565b505050565b606061081c82610a9a565b50600060066000848152602001908152602001600020805461083d90611f86565b80601f016020809104026020016040519081016040528092919081815260200182805461086990611f86565b80156108b65780601f1061088b576101008083540402835291602001916108b6565b820191906000526020600020905b81548152906001019060200180831161089957829003601f168201915b5050505050905060006108c761120e565b905060008151036108dc57819250505061091f565b6000825111156109115780826040516020016108f9929190612133565b6040516020818303038152906040529250505061091f565b61091a84611225565b925050505b919050565b6000600560008473ffffffffffffffffffffffffffffffffffffffff1673ffffffffffffffffffffffffffffffffffffffff16815260200190815260200160002060008373ffffffffffffffffffffffffffffffffffffffff1673ffffffffffffffffffffffffffffffffffffffff16815260200190815260200160002060009054906101000a900460ff16905092915050565b60007f80ac58cd000000000000000000000000000000000000000000000000000000007bffffffffffffffffffffffffffffffffffffffffffffffffffffffff1916827bffffffffffffffffffffffffffffffffffffffffffffffffffffffff19161480610a8357507f5b5e139f000000000000000000000000000000000000000000000000000000007bffffffffffffffffffffffffffffffffffffffffffffffffffffffff1916827bffffffffffffffffffffffffffffffffffffffffffffffffffffffff1916145b80610a935750610a928261128e565b5b9050919050565b600080610aa6836112f8565b9050600073ffffffffffffffffffffffffffffffffffffffff168173ffffffffffffffffffffffffffffffffffffffff1603610b1957826040517f7e273289000000000000000000000000000000000000000000000000000000008152600401610b109190611bdb565b60405180910390fd5b80915050919050565b60006004600083815260200190815260200160002060009054906101000a900473ffffffffffffffffffffffffffffffffffffffff169050919050565b600033905090565b610b748383836001611335565b505050565b600080610b85846112f8565b9050600073ffffffffffffffffffffffffffffffffffffffff168373ffffffffffffffffffffffffffffffffffffffff1614610bc757610bc68184866114fa565b5b600073ffffffffffffffffffffffffffffffffffffffff168173ffffffffffffffffffffffffffffffffffffffff1614610c5857610c09600085600080611335565b6001600360008373ffffffffffffffffffffffffffffffffffffffff1673ffffffffffffffffffffffffffffffffffffffff168152602001908152602001600020600082825403925050819055505b600073ffffffffffffffffffffffffffffffffffffffff168573ffffffffffffffffffffffffffffffffffffffff1614610cdb576001600360008773ffffffffffffffffffffffffffffffffffffffff1673ffffffffffffffffffffffffffffffffffffffff168152602001908152602001600020600082825401925050819055505b846002600086815260200190815260200160002060006101000a81548173ffffffffffffffffffffffffffffffffffffffff021916908373ffffffffffffffffffffffffffffffffffffffff160217905550838573ffffffffffffffffffffffffffffffffffffffff168273ffffffffffffffffffffffffffffffffffffffff167fddf252ad1be2c89b69c2b068fc378daa952ba7f163c4a11628f55a4df523b3ef60405160405180910390a4809150509392505050565b600073ffffffffffffffffffffffffffffffffffffffff168273ffffffffffffffffffffffffffffffffffffffff1603610e0457816040517f5b08ba18000000000000000000000000000000000000000000000000000000008152600401610dfb9190611ac5565b60405180910390fd5b80600560008573ffffffffffffffffffffffffffffffffffffffff1673ffffffffffffffffffffffffffffffffffffffff16815260200190815260200160002060008473ffffffffffffffffffffffffffffffffffffffff1673ffffffffffffffffffffffffffffffffffffffff16815260200190815260200160002060006101000a81548160ff0219169083151502179055508173ffffffffffffffffffffffffffffffffffffffff168373ffffffffffffffffffffffffffffffffffffffff167f17307eab39ab6107e8899845ad3d59bd9653f200f220920489ca2b5937696c3183604051610ef59190611954565b60405180910390a3505050565b60008373ffffffffffffffffffffffffffffffffffffffff163b11156110b3578273ffffffffffffffffffffffffffffffffffffffff1663150b7a02610f46610b5f565b8685856040518563ffffffff1660e01b8152600401610f6894939291906121ac565b6020604051808303816000875af1925050508015610fa457506040513d601f19601f82011682018060405250810190610fa1919061220d565b60015b611028573d8060008114610fd4576040519150601f19603f3d011682016040523d82523d6000602084013e610fd9565b606091505b50600081510361102057836040517f64a0ae920000000000000000000000000000000000000000000000000000000081526004016110179190611ac5565b60405180910390fd5b805181602001fd5b63150b7a0260e01b7bffffffffffffffffffffffffffffffffffffffffffffffffffffffff1916817bffffffffffffffffffffffffffffffffffffffffffffffffffffffff1916146110b157836040517f64a0ae920000000000000000000000000000000000000000000000000000000081526004016110a89190611ac5565b60405180910390fd5b505b50505050565b600073ffffffffffffffffffffffffffffffffffffffff168273ffffffffffffffffffffffffffffffffffffffff160361112b5760006040517f64a0ae920000000000000000000000000000000000000000000000000000000081526004016111229190611ac5565b60405180910390fd5b600061113983836000610b79565b9050600073ffffffffffffffffffffffffffffffffffffffff168173ffffffffffffffffffffffffffffffffffffffff16146111ad5760006040517f73c6ac6e0000000000000000000000000000000000000000000000000000000081526004016111a49190611ac5565b60405180910390fd5b505050565b806006600084815260200190815260200160002090816111d291906123e6565b507ff8e1a15aba9398e019f0b49df1a4fde98ee17ae345cb5f6b5e2c27f5033e8ce7826040516112029190611bdb565b60405180910390a15050565b606060405180602001604052806000815250905090565b606061123082610a9a565b50600061123b61120e565b9050600081511161125b5760405180602001604052806000815250611286565b80611265846115be565b604051602001611276929190612133565b6040516020818303038152906040525b915050919050565b60007f01ffc9a7000000000000000000000000000000000000000000000000000000007bffffffffffffffffffffffffffffffffffffffffffffffffffffffff1916827bffffffffffffffffffffffffffffffffffffffffffffffffffffffff1916149050919050565b60006002600083815260200190815260200160002060009054906101000a900473ffffffffffffffffffffffffffffffffffffffff169050919050565b808061136e5750600073ffffffffffffffffffffffffffffffffffffffff168273ffffffffffffffffffffffffffffffffffffffff1614155b156114a257600061137e84610a9a565b9050600073ffffffffffffffffffffffffffffffffffffffff168373ffffffffffffffffffffffffffffffffffffffff16141580156113e957508273ffffffffffffffffffffffffffffffffffffffff168173ffffffffffffffffffffffffffffffffffffffff1614155b80156113fc57506113fa8184610924565b155b1561143e57826040517fa9fbf51f0000000000000000000000000000000000000000000000000000000081526004016114359190611ac5565b60405180910390fd5b81156114a057838573ffffffffffffffffffffffffffffffffffffffff168273ffffffffffffffffffffffffffffffffffffffff167f8c5be1e5ebec7d5bd14f71427d1e84f3dd0314c0f7b2291e5b200ac8c7c3b92560405160405180910390a45b505b836004600085815260200190815260200160002060006101000a81548173ffffffffffffffffffffffffffffffffffffffff021916908373ffffffffffffffffffffffffffffffffffffffff16021790555050505050565b61150583838361168c565b6115b957600073ffffffffffffffffffffffffffffffffffffffff168373ffffffffffffffffffffffffffffffffffffffff160361157a57806040517f7e2732890000000000000000000000000000000000000000000000000000000081526004016115719190611bdb565b60405180910390fd5b81816040517f177e802f0000000000000000000000000000000000000000000000000000000081526004016115b09291906124b8565b60405180910390fd5b505050565b6060600060016115cd8461174d565b01905060008167ffffffffffffffff8111156115ec576115eb611c6c565b5b6040519080825280601f01601f19166020018201604052801561161e5781602001600182028036833780820191505090505b509050600082602001820190505b600115611681578080600190039150507f3031323334353637383961626364656600000000000000000000000000000000600a86061a8153600a8581611675576116746124e1565b5b0494506000850361162c575b819350505050919050565b60008073ffffffffffffffffffffffffffffffffffffffff168373ffffffffffffffffffffffffffffffffffffffff161415801561174457508273ffffffffffffffffffffffffffffffffffffffff168473ffffffffffffffffffffffffffffffffffffffff16148061170557506117048484610924565b5b8061174357508273ffffffffffffffffffffffffffffffffffffffff1661172b83610b22565b73ffffffffffffffffffffffffffffffffffffffff16145b5b90509392505050565b600080600090507a184f03e93ff9f4daa797ed6e38ed64bf6a1f01000000000000000083106117ab577a184f03e93ff9f4daa797ed6e38ed64bf6a1f01000000000000000083816117a1576117a06124e1565b5b0492506040810190505b6d04ee2d6d415b85acef810000000083106117e8576d04ee2d6d415b85acef810000000083816117de576117dd6124e1565b5b0492506020810190505b662386f26fc10000831061181757662386f26fc10000838161180d5761180c6124e1565b5b0492506010810190505b6305f5e1008310611840576305f5e1008381611836576118356124e1565b5b0492506008810190505b612710831061186557612710838161185b5761185a6124e1565b5b0492506004810190505b60648310611888576064838161187e5761187d6124e1565b5b0492506002810190505b600a8310611897576001810190505b80915050919050565b6000604051905090565b600080fd5b600080fd5b60007fffffffff0000000000000000000000000000000000000000000000000000000082169050919050565b6118e9816118b4565b81146118f457600080fd5b50565b600081359050611906816118e0565b92915050565b600060208284031215611922576119216118aa565b5b6000611930848285016118f7565b91505092915050565b60008115159050919050565b61194e81611939565b82525050565b60006020820190506119696000830184611945565b92915050565b600081519050919050565b600082825260208201905092915050565b60005b838110156119a957808201518184015260208101905061198e565b60008484015250505050565b6000601f19601f8301169050919050565b60006119d18261196f565b6119db818561197a565b93506119eb81856020860161198b565b6119f4816119b5565b840191505092915050565b60006020820190508181036000830152611a1981846119c6565b905092915050565b6000819050919050565b611a3481611a21565b8114611a3f57600080fd5b50565b600081359050611a5181611a2b565b92915050565b600060208284031215611a6d57611a6c6118aa565b5b6000611a7b84828501611a42565b91505092915050565b600073ffffffffffffffffffffffffffffffffffffffff82169050919050565b6000611aaf82611a84565b9050919050565b611abf81611aa4565b82525050565b6000602082019050611ada6000830184611ab6565b92915050565b611ae981611aa4565b8114611af457600080fd5b50565b600081359050611b0681611ae0565b92915050565b60008060408385031215611b2357611b226118aa565b5b6000611b3185828601611af7565b9250506020611b4285828601611a42565b9150509250929050565b600080600060608486031215611b6557611b646118aa565b5b6000611b7386828701611af7565b9350506020611b8486828701611af7565b9250506040611b9586828701611a42565b9150509250925092565b600060208284031215611bb557611bb46118aa565b5b6000611bc384828501611af7565b91505092915050565b611bd581611a21565b82525050565b6000602082019050611bf06000830184611bcc565b92915050565b611bff81611939565b8114611c0a57600080fd5b50565b600081359050611c1c81611bf6565b92915050565b60008060408385031215611c3957611c386118aa565b5b6000611c4785828601611af7565b9250506020611c5885828601611c0d565b9150509250929050565b600080fd5b600080fd5b7f4e487b7100000000000000000000000000000000000000000000000000000000600052604160045260246000fd5b611ca4826119b5565b810181811067ffffffffffffffff82111715611cc357611cc2611c6c565b5b80604052505050565b6000611cd66118a0565b9050611ce28282611c9b565b919050565b600067ffffffffffffffff821115611d0257611d01611c6c565b5b611d0b826119b5565b9050602081019050919050565b82818337600083830152505050565b6000611d3a611d3584611ce7565b611ccc565b905082815260208101848484011115611d5657611d55611c67565b5b611d61848285611d18565b509392505050565b600082601f830112611d7e57611d7d611c62565b5b8135611d8e848260208601611d27565b91505092915050565b60008060008060808587031215611db157611db06118aa565b5b6000611dbf87828801611af7565b9450506020611dd087828801611af7565b9350506040611de187828801611a42565b925050606085013567ffffffffffffffff811115611e0257611e016118af565b5b611e0e87828801611d69565b91505092959194509250565b600067ffffffffffffffff821115611e3557611e34611c6c565b5b611e3e826119b5565b9050602081019050919050565b6000611e5e611e5984611e1a565b611ccc565b905082815260208101848484011115611e7a57611e79611c67565b5b611e85848285611d18565b509392505050565b600082601f830112611ea257611ea1611c62565b5b8135611eb2848260208601611e4b565b91505092915050565b60008060408385031215611ed257611ed16118aa565b5b6000611ee085828601611af7565b925050602083013567ffffffffffffffff811115611f0157611f006118af565b5b611f0d85828601611e8d565b9150509250929050565b60008060408385031215611f2e57611f2d6118aa565b5b6000611f3c85828601611af7565b9250506020611f4d85828601611af7565b9150509250929050565b7f4e487b7100000000000000000000000000000000000000000000000000000000600052602260045260246000fd5b60006002820490506001821680611f9e57607f821691505b602082108103611fb157611fb0611f57565b5b50919050565b6000606082019050611fcc6000830186611ab6565b611fd96020830185611bcc565b611fe66040830184611ab6565b949350505050565b7f4f6e6c7920746865206f776e65722063616e206973737565206365727469666960008201527f6361746573000000000000000000000000000000000000000000000000000000602082015250565b600061204a60258361197a565b915061205582611fee565b604082019050919050565b600060208201905081810360008301526120798161203d565b9050919050565b7f4e487b7100000000000000000000000000000000000000000000000000000000600052601160045260246000fd5b60006120ba82611a21565b91507fffffffffffffffffffffffffffffffffffffffffffffffffffffffffffffffff82036120ec576120eb612080565b5b600182019050919050565b600081905092915050565b600061210d8261196f565b61211781856120f7565b935061212781856020860161198b565b80840191505092915050565b600061213f8285612102565b915061214b8284612102565b91508190509392505050565b600081519050919050565b600082825260208201905092915050565b600061217e82612157565b6121888185612162565b935061219881856020860161198b565b6121a1816119b5565b840191505092915050565b60006080820190506121c16000830187611ab6565b6121ce6020830186611ab6565b6121db6040830185611bcc565b81810360608301526121ed8184612173565b905095945050505050565b600081519050612207816118e0565b92915050565b600060208284031215612223576122226118aa565b5b6000612231848285016121f8565b91505092915050565b60008190508160005260206000209050919050565b60006020601f8301049050919050565b600082821b905092915050565b60006008830261229c7fffffffffffffffffffffffffffffffffffffffffffffffffffffffffffffffff8261225f565b6122a6868361225f565b95508019841693508086168417925050509392505050565b6000819050919050565b60006122e36122de6122d984611a21565b6122be565b611a21565b9050919050565b6000819050919050565b6122fd836122c8565b612311612309826122ea565b84845461226c565b825550505050565b600090565b612326612319565b6123318184846122f4565b505050565b5b818110156123555761234a60008261231e565b600181019050612337565b5050565b601f82111561239a5761236b8161223a565b6123748461224f565b81016020851015612383578190505b61239761238f8561224f565b830182612336565b50505b505050565b600082821c905092915050565b60006123bd6000198460080261239f565b1980831691505092915050565b60006123d683836123ac565b9150826002028217905092915050565b6123ef8261196f565b67ffffffffffffffff81111561240857612407611c6c565b5b6124128254611f86565b61241d828285612359565b600060209050601f831160018114612450576000841561243e578287015190505b61244885826123ca565b8655506124b0565b601f19841661245e8661223a565b60005b8281101561248657848901518255600182019150602085019450602081019050612461565b868310156124a3578489015161249f601f8916826123ac565b8355505b6001600288020188555050505b505050505050565b60006040820190506124cd6000830185611ab6565b6124da6020830184611bcc565b9392505050565b7f4e487b7100000000000000000000000000000000000000000000000000000000600052601260045260246000fdfea2646970667358221220b2e8922578f1eae72eb1e580b2659e18f7d8728ef86922c659e2f97516b0190e64736f6c634300081b0033",
  "linkReferences": {},
  "deployedLinkReferences": {}
}